:100000000C9463000C948B000C948B000C948B006C
:100010000C948B000C948B000C948B000C945F055B
:100020000C948B000C948B000C948B000C948B0024
:100030000C948B000C948B000C948B000C948B0014
:100040000C9413060C948B000C94E1050C94BB05E6
:100050000C948B000C948B000C948B000C948B00F4
:100060000C948B000C948B000000000024002700EF
:100070002A000000000023002600290000000008DC
:10008000000201000003040700000000000000005F
:10009000010204081020408001020408102001021F
:1000A0000408102000000000250028002B00040494
:1000B0000404040404040202020202020303030310
:1000C00003030200A20611241FBECFEFD8E0DEBF5B
:1000D000CDBF11E0A0E0B1E0EAE7F4E102C0059095
:1000E0000D92A033B107D9F722E0A0E3B1E001C03F
:1000F0001D92A930B207E1F710E0C3E6D0E004C0DA
:100100002197FE010E94300AC236D107C9F70E942A
:10011000EC060C943B0A0C940000FC01538D448DBA
:10012000252F30E0842F90E0821B930B541710F0A2
:10013000CF96089501970895FC01918D828D9817AF
:1001400061F0828DDF01A80FB11D5D968C91928DBB
:100150009F5F9F73928F90E008958FEF9FEF0895B8
:10016000FC01918D828D981731F0828DE80FF11D81
:10017000858D90E008958FEF9FEF0895FC01918D9C
:10018000228D892F90E0805C9F4F821B91098F7395
:1001900099270895FC01848DDF01A80FB11DA35A92
:1001A000BF4F2C91848D90E001968F739927848F97
:1001B000A689B7892C93A089B1898C9180648C938E
:1001C000938D848D981306C00288F389E02D808179
:1001D0008F7D80830895EF92FF920F931F93CF93AB
:1001E000DF93EC0181E0888F9B8D8C8D981305C087
:1001F000E889F989808185FD24C0F62E0B8D10E0F9
:100200000F5F1F4F0F731127E02E8C8DE8120CC06B
:100210000FB607FCFACFE889F989808185FFF5CF11
:10022000CE010E94CA00F1CF8B8DFE01E80FF11DB7
:10023000E35AFF4FF0820B8FEA89FB89808180624D
:1002400007C0EE89FF896083E889F989808180642D
:10025000808381E090E0DF91CF911F910F91FF901B
:10026000EF900895CF93DF93EC01888D8823C9F038
:10027000EA89FB89808185FD05C0A889B9898C91AF
:1002800086FD0FC00FB607FCF5CF808185FFF2CF4A
:10029000A889B9898C9185FFEDCFCE010E94CA0053
:1002A000E7CFDF91CF91089584E591E00E94BE00F1
:1002B00021E0892B09F420E0822F089580E090E06E
:1002C000892B29F00E94540181110C94000008959B
:1002D000CF92DF92EF92FF920F931F93CF93DF9312
:1002E0006C017A018B01C0E0D0E0CE15DF0589F00A
:1002F000D8016D918D01D601ED91FC910190F081B5
:10030000E02DC6010995892B11F47E0102C02196CA
:10031000ECCFC701DF91CF911F910F91FF90EF902C
:10032000DF90CF90089590E0FC01E458FF4F3491A6
:10033000FC01E057FF4F2491FC01E255FF4FE4918F
:10034000EE2309F43BC0332339F1333091F038F414
:100350003130A9F0323001F584B58F7D12C03730CD
:1003600091F03830A1F03430B9F4809180008F7D65
:1003700003C0809180008F77809380000DC084B58A
:100380008F7784BD09C08091B0008F7703C08091C2
:10039000B0008F7D8093B000F0E0EE0FFF1FEC55B2
:1003A000FF4FA591B4918FB7F894EC91611103C000
:1003B00020952E2301C02E2B2C938FBF0895909152
:1003C0000001981324C0E2ECF0E0E4919FEF9093D9
:1003D0000001E130B9F098F0E230C9F4909170007A
:1003E0009D7F9093700091E09093B0009091B10048
:1003F000987F94609093B1001092B30008C010925F
:100400006E0005C090916F009D7F90936F0060E03B
:100410000C949301CF93DF9390E0FC01E057FF4FE2
:100420002491FC01E255FF4F8491882361F190E013
:10043000880F991FFC01E859FF4FC591D491FC0129
:10044000EC55FF4FA591B491611109C09FB7F89485
:100450008881209582238883EC912E230BC0623003
:1004600061F49FB7F8943881822F80958323888325
:10047000EC912E2B2C939FBF06C08FB7F894E88188
:100480002E2B28838FBFDF91CF910895CF9390912A
:100490000001981721F09F3F09F0E1C004C0E2EC91
:1004A000F0E0C4917FC080930001E2ECF0E0E491C1
:1004B000EF3F09F4D4C0E13031F1E23009F44AC031
:1004C000E1116FC014BC15BC94B5926094BD95B594
:1004D000916095BD282F30E0F901E255FF4FE4917E
:1004E000F0E0EE0FFF1FEC55FF4F459154915093F4
:1004F000470140934601F901E057FF4FE491E09333
:100500004501C0E051C0109280001092810090918E
:100510008100986090938100909181009160909308
:100520008100282F30E0F901E255FF4FE491F0E01F
:10053000EE0FFF1FEC55FF4F45915491509344012E
:1005400040934301F901E057FF4FE491E0934201EA
:10055000C1E02AC01092B0001092B1009091B0009A
:1005600092609093B0009091B10091609093B1002F
:10057000282F30E0F901E255FF4FE491F0E0EE0F53
:10058000FF1FEC55FF4F459154915093410140930B
:100590004001F901E057FF4FE491E0933F01C2E0D1
:1005A00003C0CE2FC7FD5BC061E00E940A02CC23CE
:1005B00009F43FC0C230A9F1C130E9F48091810053
:1005C000887F8160809381008FE99FE0909389000C
:1005D000809388008FEF9FEFDC0180934C01909314
:1005E0004D01A0934E01B0934F0180916F00826046
:1005F00080936F0034C0C23091F58FE98093B300CF
:100600008FEF9FEFDC018093480190934901A09305
:100610004A01B0934B01809170008260809370001A
:100620001EC08091B100887F83608093B1008CE709
:10063000E5CF85B5887F836085BD8DE387BD8FEF6E
:100640009FEFDC018093500190935101A0935201E0
:10065000B093530180916E00826080936E00CF91C1
:1006600008953FB7F8948091350190913601A0919B
:100670003701B091380126B5A89B05C02F3F19F06E
:100680000196A11DB11D3FBFBA2FA92F982F882712
:10069000820F911DA11DB11DBC01CD0142E0660F6D
:1006A000771F881F991F4A95D1F708958F929F92BF
:1006B000AF92BF92CF92DF92EF92FF926B017C01DB
:1006C0000E9431034B015C01C114D104E104F10427
:1006D000F1F00E943103DC01CB0188199909AA09C4
:1006E000BB09883E9340A105B10570F321E0C21A11
:1006F000D108E108F10888EE880E83E0981EA11C5D
:10070000B11CC114D104E104F10419F7DDCFFF904D
:10071000EF90DF90CF90BF90AF909F908F90089513
:10072000CF93DF93EC0160E08E810E94930161E042
:100730008E810E94930160E08E810E9493018BE87C
:1007400091E00197F1F7DF91CF910895CF92DF9279
:10075000EF92FF920F931F93CF93DF937C016C0175
:1007600087E0C80ED11CC0E0D0E0062F10E0B80131
:100770000C2E02C0759567950A94E2F76170F60138
:1007800081916F010E9493012196C430D10579F7C0
:10079000C701DF91CF911F910F91FF90EF90DF90F4
:1007A000CF900C949003CF92DF92EF92FF920F9331
:1007B0001F93CF93DF93EC01F62E642F8C810E9460
:1007C00093018D818F3F19F060E00E9493018F8526
:1007D0000F2D10E084FF25C06E0187E0C80ED11CEC
:1007E000E12CF12CB8010E2C02C0759567950A9486
:1007F000E2F76170F60181916F010E949301FFEFB2
:10080000EF1AFF0A88E0E816F10461F7CE01DF91E4
:10081000CF911F910F91FF90EF90DF90CF900C94AC
:100820009003B80184E0759567958A95E1F7CE014C
:100830000E94A6036F2DCE01DF91CF911F910F91E2
:10084000FF90EF90DF90CF900C94A60341E00E94C0
:10085000D30381E090E0089540E00C94D303EF923D
:10086000FF920F931F93CF93DF93EC01623018F048
:100870008F8588608F876B8B1C8A80E48D8B80E1ED
:100880008E8B80E58F8B61E08C810E940A028D81C6
:100890008F3F19F061E00E940A0261E08E810E94A0
:1008A0000A027E0187E0E80EF11C00E010E08F856F
:1008B00084FD03C084E090E002C088E090E0081767
:1008C00019074CF461E0F70181917F010E940A024F
:1008D0000F5F1F4FECCF8BE39DE00197F1F760E0D6
:1008E0008C810E94930160E08E810E9493018D8132
:1008F0008F3F19F060E00E9493016F8564FD1DC079
:1009000063E0CE010E94A6030BE416E4C801019740
:10091000F1F763E0CE010E94A603C8010197F1F749
:1009200063E0CE010E94A60383E592E00197F1F710
:1009300062E0CE010E94A60316C06062CE010E9452
:100940002C048BE496E40197F1F76F856062CE0189
:100950000E942C0483E592E00197F1F76F856062B5
:10096000CE010E942C046F856062CE010E942C048F
:1009700084E0888B6CE0CE010E942C0461E0CE0103
:100980000E942C048BE39FE10197F1F782E0898BB1
:1009900066E0CE01DF91CF911F910F91FF90EF9014
:1009A0000C942C04089580E090E008950E94360A8B
:1009B0006115710579F0FB0101900020E9F731978D
:1009C000AF01461B570BDC01ED91FC910280F381D6
:1009D000E02D099480E090E008954F925F926F922D
:1009E0007F92EF92FF920F931F93CF93DF93CDB738
:1009F000DEB7A1970FB6F894DEBF0FBECDBF7C0166
:100A0000FA01CB0119A2223008F42AE08E010F5D11
:100A10001F4F422E512C612C712CBF01A30192015A
:100A20000E940E0AF901CA01015011096A3014F43A
:100A3000605D01C0695CD8016C93232B242B252BAE
:100A400061F7B801C7010E94D804A1960FB6F894C7
:100A5000DEBF0FBECDBFDF91CF911F910F91FF90F1
:100A6000EF907F906F905F904F900895CF92DF92BC
:100A7000EF92FF920F931F93CF93DF93EC016A01E4
:100A80007B01E881F9810190F081E02D6DE209950B
:100A90008C0144275527BA014C195D096E097F095D
:100AA0002AE0CE010E94ED04800F911FDF91CF91CB
:100AB0001F910F91FF90EF90DF90CF9008951F92BC
:100AC0000F920FB60F9211242F933F934F935F9382
:100AD0006F937F938F939F93AF93BF93EF93FF9306
:100AE0008091480190914901A0914A01B0914B0138
:100AF000892B8A2B8B2B51F180913F01E091400192
:100B0000F0914101908189278083809148019091E3
:100B10004901A0914A01B0914B01181619061A0615
:100B20001B06C4F48091480190914901A0914A01AB
:100B3000B0914B010197A109B109809348019093AD
:100B40004901A0934A01B0934B0104C08091000178
:100B50000E94DF01FF91EF91BF91AF919F918F9123
:100B60007F916F915F914F913F912F910F900FBEA9
:100B70000F901F9018951F920F920FB60F9211248D
:100B80002F933F934F935F936F937F938F939F9395
:100B9000AF93BF93EF93FF9384E591E00E94CA0067
:100BA000FF91EF91BF91AF919F918F917F916F9145
:100BB0005F914F913F912F910F900FBE0F901F901B
:100BC00018951F920F920FB60F9211242F938F93A7
:100BD0009F93EF93FF93E0916401F0916501808111
:100BE000E0916A01F0916B0182FD12C090818091C9
:100BF0006D018F5F8F7320916E01821751F0E0912C
:100C00006D01F0E0EC5AFE4F958F80936D0101C0AD
:100C10008081FF91EF919F918F912F910F900FBE47
:100C20000F901F9018951F920F920FB60F921124DC
:100C30002F933F938F939F93AF93BF9380913101F5
:100C400090913201A0913301B09134013091300183
:100C500023E0230F2D3720F40196A11DB11D05C0FF
:100C600026E8230F0296A11DB11D20933001809329
:100C7000310190933201A0933301B09334018091FC
:100C8000350190913601A0913701B091380101965C
:100C9000A11DB11D8093350190933601A0933701BA
:100CA000B0933801BF91AF919F918F913F912F9158
:100CB0000F900FBE0F901F901895CF92DF92EF927A
:100CC000FF920F931F93E82FF92F05C001501109D0
:100CD0002109310961F1908196239417B9F305C078
:100CE000015011092109310911F1908196239413C2
:100CF000F7CFC12CD12CE12CF12C0AC08FEFC81AF0
:100D0000D80AE80AF80A0C151D052E053F0579F0EA
:100D100080818623841791F36C2D7D2D8E2D9F2D40
:100D20001F910F91FF90EF90DF90CF90089560E0BA
:100D300070E080E090E01F910F91FF90EF90DF90C6
:100D4000CF900895E4E5F1E01382128288EE93E0FB
:100D5000A0E0B0E084839583A683B78385E091E02B
:100D60009183808385EC90E09587848784EC90E084
:100D70009787868780EC90E0918B808B81EC90E068
:100D8000938B828B82EC90E0958B848B86EC90E049
:100D9000978B868B118E128E138E148EE1EFF1E0FD
:100DA0001382128287E191E09183808314828FEF16
:100DB000858381E0868382E0878383E0808784E087
:100DC000818785E0828713861486158616861786A6
:100DD00061E0CF010C942F04789484B5826084BDC7
:100DE00084B5816084BD85B5826085BD85B581602F
:100DF00085BD80916E00816080936E0010928100AD
:100E00008091810082608093810080918100816067
:100E10008093810080918000816080938000809128
:100E2000B10084608093B1008091B00081608093B4
:100E3000B00080917A00846080937A0080917A007B
:100E4000826080937A0080917A00816080937A003A
:100E500080917A00806880937A001092C10061E0EE
:100E600086E00E940A0260E087E00E940A0261E0D8
:100E700088E00E940A0261E089E00E940A0261E0C3
:100E80008BE00E940A0262E081EF91E00E942F0451
:100E900093E0E92EF12C23E2C22ED12C37E9632E08
:100EA00030E0732E45EBA42E40E0B42E57E8852E9B
:100EB00050E0952EC4E6D0E064E6562E60E086E071
:100EC0000E949301C7010197F1F761E086E00E945B
:100ED0009301C6010197F1F760E086E00E9493015B
:100EE000F3016491F5018491E82FF0E0EE0FFF1F0C
:100EF000EE58FF4F8591949100E412E42FE030E02A
:100F0000462F0E945D06611571058105910549F026
:100F1000DC01CB010196A11DB11DBC01CD019F706B
:100F200003C060E070E0CB0160933B0170933C0133
:100F300080933D0190933E010E94150926E933E418
:100F40004BE05DE30E94790920E030E040E05FE3A0
:100F50000E9479090E94DD0870933A01609339017B
:100F6000E1E0809104028111E0E0E195F0E0EF50D2
:100F7000FE4F6489606881EF91E00E942C046FE16C
:100F800071E081EF91E00E94D804E0910402E23028
:100F900010F4E15001C0E1E0F0E0EF50FE4F648951
:100FA000606881EF91E00E942C04E0910402E2303D
:100FB00010F4E15001C0E1E0F0E0EF50FE4F648931
:100FC000606881EF91E00E942C04409139015091BA
:100FD0003A01052E000C660B770B77FF05C081EFF9
:100FE00091E00E94360505C02AE081EF91E00E9461
:100FF000ED0469E271E081EF91E00E94D8046AEFAC
:1010000070E080E090E00E945603409139015091D9
:101010003A01052E000C660B770B77FF05C084E5BF
:1010200091E00E94360505C02AE084E591E00E9427
:10103000ED046CE271E084E591E00E94D804009137
:10104000390110913A010333110544F061E08BE05E
:101050000E940A0261E08BE00E9493010451110991
:101060000F31110508F048C061E088E00E9493014B
:1010700061E08BE00E940A02F40184918330F9F070
:1010800048F48130B9F08230A1F584B5806284BD26
:1010900058BC36C08730E9F0883019F1843049F502
:1010A00080918000806280938000D0938B00C093F9
:1010B0008A0026C084B5806884BD57BC21C0809159
:1010C0008000806880938000D0938900C09388005E
:1010D00017C08091B00080688093B0005092B30038
:1010E0000FC08091B00080628093B0005092B40035
:1010F00007C060E08BE002C060E088E00E949301DE
:101100008091390190913A0145970CF04FC061E010
:1011100089E00E94930161E08BE00E940A0260E096
:101120008BE00E9493018AE00E94460264E670E030
:1011300080E090E00E9456038AE00E94DF0164E6AE
:1011400070E080E090E00E9456038AE00E94460230
:1011500064E670E080E090E00E9456038AE00E941E
:10116000DF0164E670E080E090E00E9456038AE0D0
:101170000E94460264E670E080E090E00E94560320
:101180008AE00E94DF018AE00E94460264E670E085
:1011900080E090E00E9456038AE00E94DF0164E64E
:1011A00070E080E090E00E94560304C060E089E0B7
:1011B0000E9493010E945E0181CE0E94E40868941F
:1011C000B1110C94730908950E94580988F09F5733
:1011D00098F0B92F9927B751B0F0E1F0660F771F5B
:1011E000881F991F1AF0BA95C9F714C0B13091F051
:1011F0000E947209B1E008950C947209672F782F4C
:101200008827B85F39F0B93FCCF386957795679515
:10121000B395D9F73EF490958095709561957F4F81
:101220008F4F9F4F0895E89409C097FB3EF4909527
:101230008095709561957F4F8F4F9F4F9923A9F0AF
:10124000F92F96E9BB279395F6958795779567953E
:10125000B795F111F8CFFAF4BB0F11F460FF1BC082
:101260006F5F7F4F8F4F9F4F16C0882311F096E915
:1012700011C0772321F09EE8872F762F05C06623C3
:1012800071F096E8862F70E060E02AF09A95660F7C
:10129000771F881FDAF7880F9695879597F9089535
:1012A00057FD9058440F551F59F05F3F71F0479517
:1012B000880F97FB991F61F09F3F79F087950895FC
:1012C000121613061406551FF2CF4695F1DF08C01B
:1012D000161617061806991FF1CF86957105610538
:1012E00008940895E894BB2766277727CB0197F9E0
:1012F00008950E948C090C94FD090E94EF0938F0B2
:101300000E94F60920F0952311F00C94E6090C9444
:10131000EC0911240C9473090E94500970F3959FF5
:10132000C1F3950F50E0551F629FF001729FBB27DC
:10133000F00DB11D639FAA27F00DB11DAA1F649F78
:101340006627B00DA11D661F829F2227B00DA11D2B
:10135000621F739FB00DA11D621F839FA00D611DB1
:10136000221F749F3327A00D611D231F849F600DD2
:10137000211D822F762F6A2F11249F5750409AF0FB
:10138000F1F088234AF0EE0FFF1FBB1F661F771F87
:10139000881F91505040A9F79E3F510580F00C9452
:1013A000E6090C9473095F3FE4F3983ED4F3869505
:1013B00077956795B795F795E7959F5FC1F7FE2BF2
:1013C000880F911D9695879597F9089597F99F67CE
:1013D00080E870E060E008959FEF80EC08950024BD
:1013E0000A941616170618060906089500240A948A
:1013F00012161306140605060895092E0394000C10
:1014000011F4882352F0BB0F40F4BF2B11F460FF9E
:1014100004C06F5F7F4F8F4F9F4F0895A1E21A2E38
:10142000AA1BBB1BFD010DC0AA1FBB1FEE1FFF1F88
:10143000A217B307E407F50720F0A21BB30BE40BD8
:10144000F50B661F771F881F991F1A9469F760951F
:101450007095809590959B01AC01BD01CF010895D9
:10146000EE0FFF1F0590F491E02D099481E090E0CC
:0A147000F8940C943B0AF894FFCFA7
:10147A00FF00000000EB0068018D003201BE009CF5
:10148A0000B0000000000026046801D304D204441E
:10149A00697374616E63653A00636D000D0A00003A
:00000001FF
